:020000040000FA
:10000000020764C2AFF5088119FFFFC2AFF508818E
:100010002BFFFFC2AFF508813DFFFFC2AFF508819E
:100020004FFFFFC2AFF5088161FFFFC2AFF5088146
:1000300073FFFFC2AFF5088185FFFFC2AFF50881EE
:1000400097FFFFC2AFF50881A9FFFFC2AFF5088196
:10005000BBFFFFC2AFF50881CDFFFFC2AFF508813E
:10006000DFFFFFC2AFF50881F1FFFFC2AFF508A1C6
:1000700003FFFFC2AFF508A115FFFFC2AFF508A14E
:1000800027FFFFC2AFF508A139FFFFC2AFF508A1F6
:100090004BFFFFFFC290758701002274FC12072AF4
:1000A00075F40043FE01750A04750B00780A120707
:1000B0005374021207997A007B0079081205617463
:1000C0000212070F851E82851F83E0F47003A3E0F0
:1000D000F47003020205851E82851F83E0F8A3E009
:1000E000F9E8497003020205740212078FE0687094
:1000F00003A3E0697010750901024030C2AF75C9F1
:10010000AB75C95B80FE53BEFBE59DA2E650FAE5E8
:10011000C654804449F5C6E59E547F644970F8533F
:10012000C67FE59EA2E740FA53C680E59E547F70E5
:10013000FA43BE049062707408F0750A00F50B78FB
:100140000A1207537C807D017A007B007908120532
:1001500061740212070F900186E0F50AA3E0F50B27
:100160007409780A120773E50A2408FF53B4F3757B
:10017000BC0075BC007CFC7D077A047B007908120A
:1001800003897E09EFC3940A401C800774086E70CF
:10019000027E467C007D087A007B00EEF91203891E
:1001A0000EEEC39F40E6851E82851F83E5BDF9E5FF
:1001B000BCF8E0687003A3E069704A851E82851F61
:1001C00083E0F8A3E0F9740212078FE8F0A3E9F0E6
:1001D000851E82851F8374FFF0A3F07409F5D57521
:1001E000D480750A01780A12075374021207997AAB
:1001F000007B101205E8740212070FC2AF75C9AB7D
:1002000075C95B80FE750A04780A120753740212DE
:1002100007997A007B007901120561740212070FB9
:10022000851E82851F83E0F47003A3E0F47003024F
:100230000379851E82851F83E0F8A3E0F9E8497001
:1002400003020379740212078FE0F8A3E0F9851E18
:1002500082851F83E0687003A3E069701075090050
:10026000020830C2AF75C9AB75C95B80FE74FF6808
:10027000700374FF69600302037953BEFBE59DA21E
:10028000E650FAE5C654804449F5C6E59E547F64BD
:100290004970F853C67FE59EA2E740FA53C680E551
:1002A0009E547F70FA43BE049062707408F0750A21
:1002B00000F50B780A1207537C807D017A007B00E1
:1002C0007901120561740212070F900186E0F50AA8
:1002D000A3E0F50B7409780A120773E50A243FFFBF
:1002E00053B4F375BC0075BC007CFC7D077A047BBD
:1002F0000079011203897E02EFC39403401C80073A
:1003000074086E70027E467C007D087A007B00EEE9
:10031000F91203890EEEC39F40E6851E82851F8376
:10032000E5BDF9E5BCF8E0687003A3E069704A85B3
:100330001E82851F83E0F8A3E0F9740212078FE89C
:10034000F0A3E9F0851E82851F8374FFF0A3F0748B
:1003500009F5D575D480750A01780A12075374021D
:100360001207997A007B021205E8740212070FC285
:10037000AF75C9AB75C95B80FE43BE03120094C262
:10038000AF75C9AB75C95B80FE74F712064EE9FE06
:10039000E5C7FF740F5EF50A750B00740B780A123F
:1003A0000740EA2400F8EB350BF9E82400E9348033
:1003B000F9A2AFE433F50AC2AFEEC4540FFAE5C7B1
:1003C00054F84AF5C7E9900980F0E8A3F0A37470E7
:1003D000F0A374BDF0EC900985F0EDFC900984E089
:1003E00054E04CF09009867420F0A37442F0740934
:1003F000F5D575D48075D60100000000000000001E
:1004000000000075D701E5D7A2E040FA8FC7E50AE2
:10041000A2E092AF7F020206B4E5096007E508D2C8
:10042000AF024033E508D2AF020833E5096007E5C3
:1004300008D2AF02403BE508D2AF02083BE50960B5
:1004400007E508D2AF024043E508D2AF020843E512
:10045000096007E508D2AF02404BE508D2AF0208B9
:100460004BE5096007E508D2AF024053E508D2AF7B
:10047000020853E5096007E508D2AF02405BE508D2
:10048000D2AF02085BE5096007E508D2AF0240631E
:10049000E508D2AF020863E5096007E508D2AF02BC
:1004A000406BE508D2AF02086BE5096007E508D2AA
:1004B000AF024073E508D2AF020873E5096007E5B3
:1004C00008D2AF02407BE508D2AF02087BE50960A5
:1004D00007E508D2AF024083E508D2AF020883E502
:1004E000096007E508D2AF02408BE508D2AF0208E9
:1004F0008BE5096007E508D2AF024093E508D2AF6B
:10050000020893E5096007E508D2AF02409BE508C1
:10051000D2AF02089BE5096007E508D2AF0240A30D
:10052000E508D2AF0208A3E5096007E508D2AF02EB
:1005300040ABE508D2AF0208ABE5096007E508D299
:10054000AF0240B3E508D2AF0208B3E5096007E5A2
:1005500008D2AF0240BBE508D2AF0208BB000205DB
:100560005D74F512064E890A740F550AF50C750D67
:1005700000740B780C120740EA2400F8EB3480F981
:10058000E82400E9350DF9E5C7F50BA2AFE433F532
:100590000CC2AFE50AC4540FFAE5C754F84AF5C7D0
:1005A000740B12078FE0FEA3E0FFEE4F602CEEFA13
:1005B000EFFB88828983E08C828D83F08882898337
:1005C000A3A882A9838C828D83A3AC82AD83EA2405
:1005D000FF1AEB34FFFBEA4B70D8850BC7E50CA282
:1005E000E092AF7F040206B474F712064EED900954
:1005F00080F0ECA3F0A37462F0A37473F0A3E05452
:100600001FF0740912078FE0F50AA3E0F50BE50A65
:10061000333354FC900985F07406780A120773E5A9
:100620000A900984F09009867412F0A37442F05382
:10063000D1FE75D601EA906271F0EBA3F090627082
:10064000E0D2E1F0E0A2E740FB7F020206B4251E03
:10065000C582C0E0E51F34FFC583C0E0E51EC39539
:100660008224F910AF0885831F85821E8008858348
:100670001F85821ED2AFCEF0A3E520F0A3780AE654
:1006800008F0A3DEFAEFF0A3E58124FBF8E608F01A
:10069000A3E608F0A30808E608F0A3E608F0A3150F
:1006A000811581D0E0FED0E0F815811581E8C0E029
:1006B000EEC0E022851F83851E82E0A3FEE0A3F545
:1006C00020780AE0A3F608DFFAE0A3FFE0A3C0E089
:1006D000E0A3C0E0E0A3C0E0E0A3C0E010AF088565
:1006E000821E85831F800885821E85831FD2AFD01E
:1006F00083D08222251EF58210AF08F51E400C150E
:100700001F8008F51E4002151FD2AF851F832200EF
:10071000C0D0251E10AF08F51E500C051F8008F52F
:100720001E5002051FD2AFD0D022251E10AF08F5F3
:100730001E400C151F8008F51E4002151FD2AF2267
:10074000700422600D18C6C333C608C633C6D5E090
:10075000F4182274028000C0E0F4041206F4D0E021
:100760001207822275D00075813F751E80751F01AA
:100770000207A1600C08C6C313C618C613C6D5E08D
:10078000F422CAC0E0E6F0A308DAFAD0E0FA2225A3
:100790001EF582E4351FF58322251EFCE4351FFD7E
:1007A0002212009B1207A700000080FBFFFFFFFF43
:1007B000FFFFFFFFFFFFFFFFFFFFFFFFFFFFFFFF49
:1007C000FFFFFFFFFFFFFFFFFFFFFFFFFFFFFFFF39
:1007D000FFFFFFFFFFFFFFFFFFFFFFFFFFFFFFFF29
:1007E000FFFFFFFFFFFFFFFFFFFFFFFFFFFFFFFF19
:1007F000FFFFFFFFFFFFFFFFFFFFFFFFFFFFFFFF09
:04000005000007648C
:020000040000FA
:100800003863FFFF000A007C010000D0FFFFFFFFFC
:10081000FFFFFFFFFFFFFFFFFFFFFFFFFFFFFFFFE8
:10082000000102030405060708090A0BFFFFFFFF8A
:10083000020BD3021987FFFFFFFFFFFFFFFFFFFF40
:10084000FFFFFFFFFFFFFFFFFFFFFFFFFFFFFFFFB8
:10085000FFFFFFFFFFFFFFFFFFFFFF0220BBFFFFC8
:10086000FFFFFFFFFFFFFFFFFFFFFFFFFFFFFFFF98
:10087000FFFFFFFFFFFFFFFFFFFFFFFFFFFFFFFF88
:10088000FFFFFF0219FAFFFFFFFFFFFFFFFFFFFF60
:10089000FFFFFFFFFFFFFFFFFFFFFFFFFFFFFFFF68
:1008A000FFFFFFFFFFFFFFFFFFFFFFFFFFFFFFFF58
:1008B000FFFFFF0217F301FF0000B400002800282B
:1008C00000283075A000A000A000A00000080008CB
:1008D000E001F000100010001000100010001000E7
:1008E00050005000500010001000D0070000000021
:1008F00000000F0001000500307507001000010026
:1009000081FF00000000FFDD22FB22E322FF020244
:100910000208025000A0000000E80302A0810100CC
:10092000008C8102AA8101000096090292810100D7
:1009300000B20202AA81010000970902948101001D
:1009400000C80202AA8101000098090296810100F4
:1009500000CA0202AA8101000099090298810800D8
:1009600000CB0202AA810100009A09029A810100CB
:10097000009B09FF0100FF2002A0810100008F8180
:1009800002AA81010000FF09029C81000000000012
:100990000212810300001803AD28AD28AD28AD2850
:1009A000AD28AD28AD28AD28AD28AD28AD28AD289F
:1009B000AD28412B592B3B2BFFFF010A09536176D0
:1009C000616E7420424C10FFD90104010100FFFF49
:1009D000FFFFFFFF003001020A00020106110600BE
:1009E000000000000000B000405104C0FF00F053C0
:1009F0006176616E7420424C00000000000000002F
:100A000000000000452D0000025341562D43525571
:100A10002D585858582D58585858000239393939D6
:100A2000393939393939393900023030302E3030DE
:100A3000302E303030000000023030302E30303078
:100A40002E303030000000023036382D58585858BB
:100A50002D58582D5858000202A0810100008681AF
:100A600002AA81010000900A02B081010000910AEF
:100A700002AA81010000A30A02AC81090000A40AB5
:100A800002AA81010000B10A02A881010000B20A95
:100A900002AA81010000CF0A02A681010000D00A4B
:100AA00002AA81010000C00A02A481010000C10A5B
:100AB00002AA81010000DF0A02A281010000E18098
:100AC00002E803053F100A2E02A08101000089817F
:100AD00002AA810100004F0B1030800300007F0844
:100AE0000212810300008208029E81010000F08052
:100AF00002AA810100004F0B104080030000800813
:100B00000212810300008808029E81010000088112
:100B1000FFFFFF0001307503020106000000000026
:100B200000000000000000000000000000000000C5
:100B300000000000000000FFFF0600800CE803E555
:100B4000C754F84405F5C779012200000080FB1264
:100B50000B3FB90003020BBDE479217808B800020D
:100B60008004F709D8FCE479297802B800028004EF
:100B7000F709D8FCE490028078C079078002F0A3DE
:100B8000D8FCD9FA781C9008B67A01BA000280071E
:100B9000E493A3F608DAF97A3F7B099008B77889DD
:100BA00079038015E493A3AD82AE838A828B83F0B0
:100BB000A3AA82AB838D828E83D8E9D9E775820F91
:100BC0007583A47407120BE575824A75830B740054
:100BD000120BE575D00075813F751A80751B027583
:100BE0009F00020B4FC09FF59FE473D09F22D083DC
:100BF000D082C09FE493C0E0740193C0E07402937C
:100C0000F59F22E066701008A3E066700A08A3E072
:100C100066700408A3E06622C3E7960809E7960811
:100C200009E7960809E79622C3E09608A3E096082C
:100C3000A3E09608A3E09622C00AC3E096F50A084E
:100C4000A3E096420A08A3E096420A08A3E096456C
:100C50000A7001D3D00A22080808EAC0E0EBC0E01D
:100C600086F0E7A4FA180986F0E7A42AFA1809869C
:100C7000F0E7A42AFA180986F0E7A42AFA1986F000
:100C8000E7A4FBE5F02AFA190886F0E7A42BFBE5B8
:100C9000F03AFA190886F0E7A42BFBE5F03AFA18C7
:100CA000180986F0E7A4C5F02BFBE43AFA1908E727
:100CB000C5F0C6A426F6E5F03BFBE43AFA1886F048
:100CC000E7A4F6E5F00826F6E43B08F6E43A08F671
:100CD000D0E0FBD0E0FA22E4CFC0E0E4CEC0E0E414
:100CE000CDC0E0E4CCC0E075F020E626F608E6339F
:100CF000F608E633F608E633F6181818EC33FCED80
:100D000033FDEE33FEEF33FFC3EC9709ED9709EEA9
:100D10009709EF97191919400FFFEC97FC09ED9708
:100D2000FD09EE97FE191906D5F0BFECF709EDF7AE
:100D300009EEF709EFF7191919D0E0FCD0E0FDD062
:100D4000E0FED0E0FF226016080808C6C313C618EC
:100D5000C613C618C613C618C613C6D5E0EA227055
:100D600009080808226016181818C6C333C608C632
:100D700033C608C633C608C633C6D5E0EA22E6271E
:100D8000F60809E637F60809E637F60809E637F601
:100D900022E026F608A3E036F608A3E036F608A31C
:100DA000E036F622E026F008A3E036F008A3E036AD
:100DB000F008A3E036F022C3E697F60809E697F6B6
:100DC0000809E697F60809E697F622C3E096F008C8
:100DD000A3E096F008A3E096F008A3E096F022E6E0
:100DE00057F60809E657F60809E657F60809E657E0
:100DF000F622E056F608A3E056F608A3E056F608F9
:100E0000A3E056F622E056F008A3E056F008A3E06F
:100E100056F008A3E056F022E0F608A3E0F608A397
:100E2000E0F608A3E0F622E6F008A3E6F008A3E661
:100E3000F008A3E6F022E0FAA3E0FBA3E0FCA3E0C5
:100E4000FD22EAF0A3EBF0A3ECF0A3EDF022E0F832
:100E5000A3E0F9A3E0FAA3E0FB22E8F0A3E9F0A302
:100E6000EAF0A3EBF022CAC0E0E6F0A308DAFAD079
:100E7000E0FA22CAC0E0E0A3C582CCC582C583CD1A
:100E8000C583F0A3C582CCC582C583CDC583DAE610
:100E9000D0E0CA22C3E498F8E499F9120ED580266E
:100EA000C3E49AFAE49BFBE920E7E9120ED5E49843
:100EB000F8E499F922C3E498F8E499F9120ED5E41C
:100EC00098F8E499F9C3E49AFAE49BFB22EB20E753
:100ED000CFE920E7E0B90010BB0008E88AF084F809
:100EE000AAF022E4FBC8FA22EB70227B10C833C8B8
:100EF000C933C9335007C39AC3DBF280069A500145
:100F00002ADBEAC833F4C8C933F4C9FA2275F008F9
:100F1000E4C833C8C933C933C99AC99B5004C92A24
:100F2000C93BD5F0ECFBC833F4C8E4C9FA22600D24
:100F300008C6A2E713C618C613C6D5E0F322600C94
:100F400008C6C313C618C613C6D5E0F4227004221F
:100F5000600D18C6C333C608C633C6D5E0F41822E0
:100F6000251A10AF08F51A400C151B8008F51A4019
:100F700002151BD2AF2200C0D0251A10AF08F51AF7
:100F8000500C051B8008F51A5002051BD2AFD0D0BB
:100F900022251AF58210AF08F51A400C151B80089F
:100FA000F51A4002151BD2AF851B8322251AF58244
:100FB000E4351BF58322251AF8E4351BF922251A9E
:100FC000FAE4351BFB22251AFCE4351BFD22E473F1
:100FD000251AC582C0E0E51B34FFC583C0E0E51AD1
:100FE000C3958224F810AF0885831B85821A800878
:100FF00085831B85821AD2AFCEF0A3E520F0A378BB
:101000000AE608F0A3DEFAEFF0A3E58124FAF8E699
:1010100008F0A3E608F0A3E608F0A30808E608F045
:10102000A3E608F0A315811581D0E0FED0E0F81505
:101030008115811581E8C0E0EEC0E022251AC58245
:10104000C0E0E51B34FFC583C0E0E51AC3958224E8
:10105000F910AF0885831B85821A800885831B855C
:10106000821AD2AFCEF0A3E520F0A3780AE608F00A
:10107000A3DEFAEFF0A3E58124FBF8E608F0A3E68F
:1010800008F0A30808E608F0A3E608F0A315811508
:1010900081D0E0FED0E0F815811581E8C0E0EEC017
:1010A000E022851B83851A82E0A3FEE0A3F5207869
:1010B0000AE0A3F608DFFAE0A3FFE0A3C0E0E0A3A4
:1010C000C0E0E0A3C0E0E0A3C0E0E0A3C0E010AF58
:1010D0000885821A85831B800885821A85831BD226
:1010E000AFD083D082020BEB851B83851A82E0A3ED
:1010F000FEE0A3F520780AE0A3F608DFFAE0A3FFFC
:10110000E0A3C0E0E0A3C0E0E0A3C0E0E0A3C0E053
:1011100010AF0885821A85831B800885821A858313
:101120001BD2AFD083D08222740480067402800266
:101130007401C0E0F404120F91D0E0120E66227424
:1011400004800474028000CCC0E0EDC0E0E51AC366
:101150009CCCAD1B50011D10AF068C1A8D1B800658
:101160008C1A8D1BD2AF120E73D0E0FDD0E0FC22A2
:10117000D083D082E9C0E0E493A3C386F0C5F095A4
:10118000F0F908E493A386F0C5F095F0700BE493B2
:10119000A3C3994005E9048002A3E475F002A425E5
:1011A00082F582E5F03583F583D0E0F9E493A3C0BE
:1011B000E0E493C0E022D083D082ECC0E0EDC0E058
:1011C000E493A3FCE493A3FDED4C600D121202EC3A
:1011D00024FFFCED34FFFD80EFE493A3FCE493A334
:1011E000FDED4C600D121241EC24FFFCED34FFFDCF
:1011F00080EFD0E0FDD0E0FCE493A3C0E0E493C036
:10120000E022C0E0C3E49396087401939618400F5F
:10121000E49366700808740193661870007019A34F
:10122000A3C3E49396087401939618A3A3400DD02A
:10123000E0D0E0D0E00211F2A3A3A3A3A3A3D0E0E7
:1012400022C0E0C0F088F0E493667008087401934F
:1012500066187000A8F0A3A3700BD0F0D0E0D0E027
:10126000D0E00211F2A3A3D0F0D0E02274F5121066
:101270003CEAFEEBFFEE2434F8EF3400F9880A89EB
:101280000BEE2435F582EF3400F583E0F8EE2437D9
:10129000F582EF3400F583E0F50CEC850CF0A4FC4E
:1012A000AAF0850CF0EDA42AFDE82CF8E43DF97ACB
:1012B000257B00120ED5EA850A82850B83F0F8742F
:1012C0000758F97401B900028004C333D9FCFAE865
:1012D000131313541FF8EE28F8EF3400F9E8245DD7
:1012E000F582E93400F583E05A6008EE2434F58293
:1012F000EF802CEE2434F582EF3400F583E0C0E07B
:10130000EE2436F582EF3400F583E0F5F0D0E0848A
:10131000A8F0EE28F8EF3400F9E82438F582E93433
:1013200000F583E0F97F040210E874F512103CEA3E
:10133000FEEBFFEE2434F582EF3400F583E0C0E0ED
:10134000EE2435F582EF3400F583D0E0F08E828F05
:1013500083A3A3A3A3A3A3A3C082C0838E828F83EE
:10136000A3A3A3A3A3E0F8A3E0F9D083D082E0C3B2
:1013700098F50AA3E099F50BEE247FF582EF34008F
:10138000F583E064017069EE2480F582EF3400F5A6
:1013900083E0F8A3E0F98E828F83A3A3A3A3A3A382
:1013A000A3E0FCA3E0FD8E828F83A3A3A3A3A3E00D
:1013B000FAA3E0FBC3EA9CEB9D5010C3EC98ED99B7
:1013C000402EC3EA98EB995027800EC3EA98EB9918
:1013D0004007C3EC98ED9940177CDB7D04EEFAEFF3
:1013E000FB12280BEE247FF582EF3400F583E4F046
:1013F000EE2434F8EF3400F9E8FCE9FDEE2435F58D
:1014000082EF3400F583E0F8EE2437F582EF340004
:10141000F583E0F50CE50A850CF0A4F50AAAF08541
:101420000CF0E50BA42AF50BE8250AF8E4350BF9D6
:101430007A257B00120ED5EA8C828D83F0F8740732
:1014400058F97401B900028004C333D9FCFAE813D7
:101450001313541FF8EE28F8EF3400F9E8245DF573
:1014600082E93400F583E05A6008EE2434F582EF17
:10147000802CEE2434F582EF3400F583E0C0E0EEFA
:101480002436F582EF3400F583E0F5F0D0E084A84F
:10149000F0EE28F8EF3400F9E82438F582E934005A
:1014A000F583E0F91220A7021325C082C083851AB4
:1014B00082851B83E0F8A3E0F9C3EA9CEB9D501002
:1014C000C3EC98ED99401BC3EA98EB995014800E39
:1014D000C3EA98EB994007C3EC98ED994004790171
:1014E00080027900D083D08222EAC39CFAEB9DFB74
:1014F0002274EF12103C9003A1E064086005E064E0
:1015000007702A9061C8E060249003CFE0F4601D6A
:10151000E0F875F003A4C8AAF02AF974D128FE7483
:101520000339FF8E828F83A3A3A3E07003021621E9
:10153000906060E0C0E0EE2468F582EF3400F5834F
:10154000D0E0F0750E44750F05750A00750B00E5C7
:10155000D914F50CE5D95403F51060177403651020
:10156000605CE50C6010EE2467F582EF3400F583D3
:10157000E0700302160690053FE06401602AEE2445
:1015800082F582EF3400F583E0600478048002780D
:1015900000850C0AE50AC398FA95E0FB1226D38A67
:1015A0000A8B0BEA450B7005122A0F8074EE248219
:1015B000F582EF3400F583E070048A0E8B0FE50CA2
:1015C0006012850E82850F83F50DE5D9F0A3150D08
:1015D000E50D70F6EE2482F582EF3400F583E060CD
:1015E0004474FC250CF50C780E12112CAC0CA910CF
:1015F000EEFAEFFB1228A77402120F76E97026AA02
:101600000AAB0B122EE3793D8E828F83A3A3A3A393
:10161000E0FA7B001225A7EEFAEFFB12282312282E
:10162000B979008074740365106056850C127513C7
:1016300000781212112CAC0EAD0FAA0AAB0B1228B7
:10164000837402120F76EE2468F582EF3400F5837E
:10165000E064807004747F8001E0F50E780E121152
:1016600030E510F50E780E121130A90CAC0AAD0B56
:101670009003CFE0FA7B0012256B7402120F768084
:10168000139003A1E06408600BAC0EAD0FEEFAEF0F
:10169000FB122913122A1B79017F0A0210E874F544
:1016A00012103C74FC120F60EAFEEBFF890AA2AF35
:1016B000E433F50BC2AF806AEE2463F8EF3400F92F
:1016C0007A007B00A2AFE433F50CC2AF8882898335
:1016D000E0FCA3E0FDEC4D603A88828983E0FAA348
:1016E000E0FB8A828B83E0FCA3E0FD88828983ECA7
:1016F000F0A3EDF08A828B83E4F0A3F088828983E3
:10170000E0FCA3E0FDEC4D700A88828983A3A3E48A
:10171000F0A3F0E50CA2E092AF122EE39004E2E019
:1017200004F0EE2463F582EF3400F583E0F8A3E0E3
:10173000F9E849603DEE2463F582EF3400F583E07B
:101740002402FAA3E03400FBEA2402F50CEB340097
:10175000F50D780C12112C8A828B83E0FCA3E0F942
:10176000EEFAEFFB1228477402120F76E9700302BB
:1017700016B89004E2E060639004E3E0F89004E2BD
:10178000E0C398500C7402650A70509004E4E06065
:101790004A8E828F83A3A3A3A3E0851A82851B832D
:1017A000F0A3E4F09004E2E0F87402120FACE8F069
:1017B000A3E4F09004E2E0F89004E1E028F0740281
:1017C000120FACAC82AD83851A82851B83AA82ABD3
:1017D0008379011225779004E2E4F0E50BA2E09210
:1017E000AF7404120F76021325FFFFFF8521878552
:1017F00022C622C0E0C0D0E8C0E0E9C0E0EAC0E014
:10180000EBC0E0ECC0E0EDC0E0EEC0E0C00AC00B11
:10181000C00CC00DC082C083C0F0A2AFE433FEC2D2
:10182000AF759B00906182E0A2E05012E591A2E0CA
:10183000500C7591FE7401652170031214F1E0A241
:10184000E55051E591A2E5504B7591DF9003A1E081
:1018500064076005E06408702374016521703579C0
:10186000019003CFE0FA75F003A4CAA8F028FB7436
:10187000D12AFA74033BFB12169E8018E0640D70A7
:10188000139003C3E004F064287002E4F07A00E0EF
:10189000F9122A21906182E0A2E6400302193AE59A
:1018A00091A2E6400302193A7591BF9003A1E0644A
:1018B000057008122949122955800312294F7521F4
:1018C000001229AFE99003A2F079001229A3122790
:1018D000817A017B009003A0E0F9122C73907803C9
:1018E000E064427055900543E014F0704DC2AF12B1
:1018F00018F200782AD0E0F618D0E0F6E59F5407F9
:101900007005750BFF8003750B7FC4C0E07829E676
:10191000F50A08E6550BF50B740B780A120F3ED04A
:10192000E0250AF8906270E0A2E740F8E8C333903F
:101930006272F0906270E0D2E0F0906181E0A2E328
:101940005009E5E9A2E3500375E9F7A3E0A2E750E7
:1019500009E591A2E7500375917FEEA2E092AFD026
:10196000F0D083D082D00DD00CD00BD00AD0E0FEC6
:10197000D0E0FDD0E0FCD0E0FBD0E0FAD0E0F9D040
:10198000E0F8D0D0D0E032C0E0C0D0C082C08390B8
:101990006183E0A2E05009E5BFA2E0500375BFFEFD
:1019A000E0A2E15009E5BFA2E1500375BFFDE0A24E
:1019B000E25009E5BFA2E2500375BFFBE0A2E3508D
:1019C00009E5BFA2E3500375BFF7E0A2E45009E5C3
:1019D000BFA2E4500375BFEFE0A2E55009E5BFA246
:1019E000E5500375BFDFE0A2E65009E5BFA2E6506F
:1019F0000375BFBFD083D0828088C0E0C0D0E8C06C
:101A0000E0E9C0E0EAC0E0EBC0E0ECC0E0EDC0E03F
:101A1000C0F0E5A7A2E6500FE5A1A2E6500953A742
:101A2000BF75A1BF121A5FE5A7A2E5500CE5A1A200
:101A3000E5500653A7DF75A1DFE5A7A2E15009E550
:101A4000A1A2E1500375A1FDE5A7A2E2500CE5A11A
:101A5000A2E2500653A7FB75A1FBD0F002197074E7
:101A6000F812103C7521019003A1E0640670151274
:101A700028D78A828B83A3A3A3A3A3A3E0FAA3E01E
:101A8000FB122937A2AFE433FED2AF9003A7E06484
:101A90000170187A207B009003A0E0F9122CFD7AE7
:101AA000207B009003A0E0F9122C79906182E0D2B3
:101AB000E6F0900540E0602185C62280169003A6DE
:101AC000E064017008E5C654F84405F5C653BEFC51
:101AD0001217EC7401652160E4EEA2E092AF7F0181
:101AE0000210E8FF8E238F24858228858327851A9C
:101AF00082851B83E0CEA3E0CF852882852783EBF8
:101B0000C9EAC8EDCBECCA75F010C3E833C8E933B5
:101B1000C9EA33CAEB33CBC3EA9EF526EB9FF52522
:101B2000B35004AB25AA26EC33CCED33CDD5F0DA97
:101B3000AE23AF242274E912103C74F8120F6085B2
:101B40001A82851B83ECF0A3EDF08A0A8B0B9003BD
:101B5000A1E024F7C394055006750A01021CCC12BB
:101B600028D78A0C8B0DAE0CAF0DEE4F7003021C04
:101B7000C9AC0AAD0B7402120FACAA82AB83122956
:101B8000678E828F83A3A3750EFF750FFF7510FFFD
:101B9000751100780E120DF27402120FAC7512FF5F
:101BA0007513FF7514FF7515007812120DF2780E7B
:101BB0007912120C18502A780E7912120DB7750A84
:101BC00001750BC8750C00750D00780A790E120CA2
:101BD000185052850E0A850F0B85100C85110D804B
:101BE000507516017517C875180075190085120A09
:101BF00085130B85140C85150D780A790E120DB717
:101C00007816790A120C18401C750A00750B0075BD
:101C10000C00750D01780A7912120DB7780A790E49
:101C2000120D7E800C750A01750B00750C00750D88
:101C3000007409780A120D5F750E19F50FF510F58D
:101C400011780A790E120CD78E828F83A3A3A3A3D7
:101C5000A3A3E0F8A3E0F97AD07B03120ED5880E97
:101C6000890FE4F510F511780A790E120D7E7406CD
:101C7000120FACE0F8A3E0F97AD07B03120ED5E89E
:101C8000FA8A0EE4F50F780A790E120C18500778CC
:101C90000A790E120DB79003A1E06408600AE064AF
:101CA000066005E06405702D750E0D780E790A1238
:101CB0000C184021750EF4750FFF7510FF7511FF9C
:101CC000780A790E120D7E800C750A00750B00756E
:101CD0000C00750D00851A82851B83E0F8A3E0F5E2
:101CE000838882780A120E277408120F767F1002FA
:101CF00010E874F712103C12297990053EE0640157
:101D00007010906245E4F0A3F053F4F343FE0C53DB
:101D100090F3122925E5C654804449F5C6E59E5442
:101D20007F644970F8906185740FF090053CE0F491
:101D30007002A3E0604E90053DE0600814601B1443
:101D4000602E8040750A01750B0090053CE0780A12
:101D5000120F4DE50AF45280802A750A01750B00B6
:101D600090053CE0780A120F4DE50AF45290801479
:101D7000750A01750B0090053CE0780A120F4DE5DD
:101D80000AF452A079007F020210E874F712103CA6
:101D9000E9FEEAFF74016E700C7A807B009003A06C
:101DA000E0F9122C73902FB4E493F46008E493F9F3
:101DB000122775800953C680E59E547F70FA122958
:101DC0002B90053EE06401700312278D90053CE0E6
:101DD000F47002A3E0604B90053DE0600814601AC7
:101DE00014602C803D750A01750B0090053CE0786D
:101DF0000A120F4DE50A42808028750A01750B0012
:101E000090053CE0780A120F4DE50A429080137568
:101E10000A01750B0090053CE0780A120F4DE50AA7
:101E200042A01229791228D78A0A8B0BA80AA90B7B
:101E3000E8496015E5E170FCE82414F582E9340016
:101E4000F583E0F46003E0F5E174016F700A7A0154
:101E50009003A0E0F9122CC7021D8674ED12103C0D
:101E60008A0A8B0B8C0C8D0D7413120FAC780E122A
:101E70000E18780A790E120C187512017513C875B0
:101E800014007515005012780A790E120DB77812E9
:101E9000790A120C1850168010780E790A120DB7B4
:101EA0007812790E120C1840047901800279007FB3
:101EB0000C0210E874ED12103C8A0A8B0B8C0C8D0E
:101EC0000D7413120FAC780E120E18780E790A12D8
:101ED0000C184011780A790E120DB7AA0AAB0BAC98
:101EE0000CAD0D8022751200751300751400751568
:101EF000017812790E120DB77812790A120D7EAAA6
:101F000012AB13AC14AD1580A68A828B83750AFFC1
:101F1000750BFF750CFF750D00780A120E057F0416
:101F20000210E874F512103C8C828D83780A120E30
:101F3000188A828B83780A120DCBEA2404F8EB34DA
:101F400000F98C828D83A3A3A3A3E0FCA3E0FD880A
:101F5000828983C3E09CF0A3E09DF088828983C3DB
:101F6000E09420A3E0944E40268A828B83750AFF7A
:101F7000750BFF750CFF750DFF780A120DA48A8290
:101F80008B83A3A3A3A3E02420F0A3E0344EF002AC
:101F90001F0974F512103CE9FE9004F6E0FAA3E084
:101FA000FBEEC333F8E433F974C128F58274803949
:101FB000F583E02AF50AA3E03BF50B780A12112C11
:101FC0007A407B427C0F7D00121AE47402120F7675
:101FD0008A0A8B0B8C0C8D0D7410780A120D46AA90
:101FE0000AAB0B7F040210E874F112103C8A0E8BCE
:101FF0000F8C108D11740F120FACE0FAA3E0FB747C
:1020000011120FACE0F50AA3E0F50B780A12112CBF
:10201000EA2401F50AEB3400F50BE4F50CF50D7834
:102020000E790A120C57750A71750B02780E790A2F
:10203000120C57AA0EAB0FAC10AD11121AE47402B9
:10204000120F768B0BEA450B60047A0180027A004E
:10205000EC2AFCED3400FD7413120FACE0F8A3E0A1
:10206000F9E8FEE9FFECF8EDF97A717B02120ED582
:10207000880A890B8E828F83780A120E27ECF8ED7E
:10208000F97A717B02120ED58A0A8B0B7405780AD5
:10209000120F4D8E828F83A3A3A3A3E50AF0A3E5BD
:1020A0000BF07F080210E8C082C083E9906000F066
:1020B000D083D08222C2AF02000022C0E0C0D0E8AC
:1020C000C0E0E9C0E0E5A8D2AFC2C7751C00A2E736
:1020D000A2E792AFD0E0F9D0E0F8D0D0D0E0321251
:1020E0000BEE139807120BEE2A9807120BEE5B9873
:1020F00007120BEE969807120BEEC09807120BEE24
:10210000EA9807120BEE019907120BEE18990712C5
:102110000BEE2F9907120BEE589907120BEE6B99E5
:1021200007120BEE819907120BEE949907120BEE32
:10213000BB9907120BEED5A506120BEED9A6061217
:102140000BEE11A706120BEE34A706120BEE3FA7FB
:1021500006120BEE62A706120BEE71A806120BEE2A
:1021600046A906120BEEC1A906120BEE49AA0612E9
:102170000BEE84AA06120BEEBBAA06120BEE49ABBD
:1021800006120BEE22AC06120BEE82AC06120BEE20
:102190008DAC06120BEE0CAD06120BEE0FAD061257
:1021A0000BEE12AD06120BEEA1AD06120BEEA4ADB6
:1021B00006120BEED4AD06120BEEFEAD06120BEEC0
:1021C000ECAE06120BEE9EAF06120BEEC1E306124A
:1021D0000BEEE9E306120BEE17E406120BEE4EE4EB
:1021E00006120BEEACE406120BEEF7E406120BEE51
:1021F00042E506120BEE82E506120BEEC8E506126A
:102200000BEEF6E506120BEEB3E606120BEEBDE69C
:1022100006120BEECAE606120BEEFDE606120BEEF8
:10222000C9E706120BEED5E706120BEEEDE7061234
:102230000BEEF7E706120BEE01A107120BEE0FA152
:1022400007120BEE27A107120BEE3FA107120BEEB0
:1022500051B905120BEEFDB905120BEE78BA051255
:102260000BEE99BB05120BEED5BB05120BEE7EBC37
:1022700005120BEE65BD05120BEEC9BE05120BEE85
:1022800020BF05120BEEA1BF05120BEE91C0051287
:102290000BEEDEC005120BEE64C105120BEE96C10B
:1022A00005120BEEAAC305120BEEECC305120BEEE2
:1022B0000AC405120BEE8DC405120BEE61C50512A2
:1022C0000BEE29C605120BEE04D206120BEED7D286
:1022D00006120BEE80D306120BEED3D306120BEED2
:1022E00083D406120BEE0FD506120BEEFBD50612A9
:1022F0000BEE2AD606120BEE3DD706120BEE85D753
:1023000006120BEE5AD806120BEE96D806120BEEFA
:10231000B2D806120BEE2CA307120BEE1B88071285
:102320000BEE318807120BEE578807120BEE7389FC
:1023300007120BEE7D8907120BEEB28A07120BEE25
:10234000AA8B07120BEE9ADE06120BEECADF0612FC
:102350000BEEFDDF06120BEE47E006120BEE0EE26F
:1023600006120BEEB82F00120BEE223000120BEE0D
:10237000813100120BEE913100120BEEBE310012D2
:102380000BEE153200120BEEBE3200120BEEC5330F
:1023900000120BEE8F3400120BEEEF3500120BEE35
:1023A000323600120BEED73600120BEE2437001235
:1023B0000BEE4A3700120BEE583900120BEE5D3966
:1023C00000120BEE623B00120BEEAF3B00120BEE65
:1023D000223C00120BEE553C00120BEEF73C0012B3
:1023E0000BEEA03D00120BEED83D00120BEEDB3DD4
:1023F00000120BEE233E00120BEE633E00120BEEBA
:10240000BA3E00120BEEAD8E07120BEEC58E071210
:102410000BEE0D8F07120BEE238F07120BEE6A8F58
:1024200007120BEE7E9007120BEE0B9107120BEECC
:10243000569107120BEE00B004120BEE0CB0041212
:102440000BEE47B004120BEE8CB004120BEE4CB145
:1024500004120BEED2B104120BEE37B204120BEEE3
:1024600063B204120BEE9CB204120BEEDAB4041247
:102470000BEEBEB604120BEEA4B804120BEEE7B9D5
:1024800004120BEE35BC04120BEE47BD04120BEE2A
:1024900092BE04120BEEA2BF04120BEEBFBF0412D9
:1024A0000BEEFABF04120BEE1CC004120BEE7FC041
:1024B00004120BEE40C504120BEED5C504120BEE50
:1024C00026C604120BEE4DC604120BEE9FC6041274
:1024D0000BEEBDC604120BEE17C704120BEE16C8A6
:1024E00004120BEE9AC804120BEE33ED06120BEE3B
:1024F0003DED06120BEE80ED06120BEE9BED061283
:102500000BEE2BEE06120BEE53EE06120BEE90EED8
:1025100006120BEEC7EE06120BEEF0EE06120BEEF5
:1025200065EF06120BEE7AEF06120BEE8FEF061236
:102530000BEEC0EF06120BEED4EF06120BEEF9EF26
:1025400006120BEE33F006120BEE5FF006120BEEE6
:1025500097F006120BEE16F106120BEE5FF1061263
:102560000BEE89F106120BEEB4F106120BEEF99C9C
:1025700007120BEED48D06120BEE028E06120BEE36
:10258000508F06120BEE309006120BEE4F90061293
:102590000BEECC9006120BEE0F9106120BEE65922D
:1025A00006120BEE269306120BEEAD9506120BEEFD
:1025B0004E9606120BEE449706120BEE4198061249
:1025C0000BEE9B9906120BEE269A06120BEE81FE7D
:1025D00004120BEEEAFE04120BEE3EFF04120BEEA9
:1025E00065FF04120BEE96FF04120BEEDCFA0612E6
:1025F0000BEE49FB06120BEE90FB06120BEEA8FC4D
:1026000006120BEEA4FD06120BEE87FE06120BEE71
:1026100018F604120BEE5AF604120BEE2CF7041205
:102620000BEE05F804120BEEFFF804120BEEE1F9C5
:1026300004120BEE4AFA04120BEE00FB04120BEE2E
:1026400074FB04120BEEE0FB04120BEE09FC041207
:102650000BEE83FC04120BEE1CFD04120BEE81FD4D
:1026600004120BEE96FD04120BEEDCFD04120BEED1
:10267000F5FD04120BEE5AFE04120BEE5DFE041281
:102680000BEEB48B07120BEEDC8B07120BEE1A8CE1
:1026900007120BEED88C07120BEE3F8D07120BEED4
:1026A0005B8D07120BEE838D07120BEEB38D0712B5
:1026B0000BEEC28D07120BEE3F8E07120BEE658EEE
:1026C00007120BEEEFA905120BEECDAB05120BEEC8
:1026D000FFAD05120BEE3BAE05120BEE68AE051218
:1026E0000BEE52AF05120BEE9DAF05120BEEE8AFED
:1026F00005120BEEFAAF05120BEE3AB005120BEE17
:102700006FB005120BEEBDB005120BEEECB005126A
:102710000BEE0FB105120BEE5CB105120BEEE1B141
:1027200005120BEEFBB305120BEE3AB605120BEEDB
:102730007BB605120BEE1DB805120BEE5EB8051246
:102740000BEED1B805120BEE27B905120BEEC2F253
:1027500005120BEEC0F305120BEE59FA05120BEE43
:102760007AFC05120BEE45FE05120BEEADFF0512CD
:102770000BEE01C904120BEEB0C904120BEEDDC959
:1027800004120BEE23CA04120BEE63CB04120BEE01
:10279000F9CC04120BEE73CD04120BEE8ECD0412A5
:1027A0000BEE09CE04120BEE63CF04120BEEC3D076
:1027B00004120BEEC9D104120BEE2AD304120BEE55
:1027C00043D304120BEEA1D304120BEE8FD40412E8
:1027D0000BEEC2D404120BEE32D504120BEEACD5C4
:1027E00004120BEEF6D504120BEEC0D604120BEE5B
:1027F00095D704120BEE74D804120BEEFFD8041216
:102800000BEE6DD904120BEEE1D904120BEE0CDACB
:1028100004120BEECBDA04120BEE30DC04120BEEDA
:102820004DDC04120BEE6CDC04120BEE5DDD0412C9
:102830000BEE82DD04120BEEACDD04120BEE27DE94
:1028400004120BEE81DE04120BEEEADF04120BEE33
:1028500098E004120BEED9E004120BEE0080061291
:102860000BEE4E8006120BEE5A8006120BEE3881EC
:1028700006120BEE698106120BEE9A8106120BEE20
:102880001A8206120BEE528206120BEEA482061278
:102890000BEEE18206120BEEFE8406120BEE24878D
:1028A00006120BEE0F8906120BEEF98A06120BEEDA
:1028B000F03F00120BEEDC9505120BEE0C960512A4
:1028C0000BEEE59C05120BEE6A9E05120BEE67A45B
:1028D00005120BEE4FA505120BEE8CA505120BEEA3
:1028E000AFA505120BEEE0A505120BEEE9A505124A
:1028F0000BEEF3A505120BEEE1A605120BEED7A722
:1029000005120BEE09E104120BEE08E504120BEEC2
:102910000EE504120BEE49EC04120BEE62F1041208
:102920000BEE4D8407120BEEE38407120BEEF984D5
:1029300007120BEE6F8507120BEEE38507120BEE05
:10294000218607120BEE958607120BEE0E870712F3
:102950000BEE178707120BEE238707120BEE388753
:1029600007120BEE768707120BEE8C8707120BEE21
:10297000EB8707120BEE008007120BEE0D8007129B
:102980000BEE278007120BEE668007120BEEA48079
:1029900007120BEE098107120BEE1E8107120BEED8
:1029A000298107120BEE368107120BEE4D810712BB
:1029B0000BEE5B8107120BEE668107120BEE728144
:1029C00007120BEE818107120BEE8C8107120BEEC2
:1029D000AF8107120BEE568207120BEE66820712CA
:1029E0000BEE808207120BEE9D8207120BEEB9826E
:1029F00007120BEEDE8207120BEEE98207120BEED6
:102A0000FE8207120BEE128307120BEE738307127E
:102A10000BEE798307120BEE7F8307120BEE858393
:102A200007120BEE9D8307120BEED08307120BEEFD
:102A3000B3D605120BEE37D705120BEEE6D705120B
:102A40000BEE45D905120BEE66DB05120BEE52DCE0
:102A500005120BEE87DC05120BEEA9DC05120BEE5E
:102A600058DD05120BEE50DF05120BEE79DF051273
:102A70000BEE0BE005120BEE3DE005120BEE4AE00B
:102A800005120BEEA1E005120BEEC7E005120BEEEE
:102A900034E305120BEE37E405120BEE8FE405125A
:102AA0000BEE42C805120BEE4CC905120BEE33CAF1
:102AB00005120BEE3DCA05120BEE5FCA05120BEEB6
:102AC0006BCA05120BEE04CC05120BEE33CC0512CB
:102AD0000BEE4FCD05120BEEA8CD05120BEE0ECF6F
:102AE00005120BEEEDCF05120BEE49D005120BEEE1
:102AF000B6D005120BEEF1D005120BEE30D1051257
:102B00000BEEE9D305120BEE03D405120BEE8FD4B6
:102B100005120BEE9DD405120BEEF6D405120BEE4A
:102B200004D505120BEE77D505120BEEDBD5051299
:102B30000BEE25D605120BEEA79A06120BEEC99ADC
:102B400006120BEEEF9C06120BEE04A006120BEE23
:102B50001CA106120BEECFA106120BEEB1A20612BB
:102B60000BEECD9907120BEEF29907120BEE649A59
:102B700007120BEE8ACA06120BEE93CA06120BEE70
:102B80009CCA06120BEE73CB06120BEE24CD061276
:102B90000BEE5ACD06120BEE94CD06120BEECACDFB
:102BA00006120BEE04CE06120BEE38CE06120BEE1A
:102BB00064CE06120BEEADCE06120BEEE7CE061279
:102BC0000BEE30CF06120BEE88CF06120BEEBDCF08
:102BD00006120BEE18D006120BEE52D006120BEEB8
:102BE000A3D006120BEED9D006120BEE13D10612AB
:102BF0000BEE41D106120BEE64D106120BEE49FF2B
:102C000006120BEE75FF06120BEED0FF06120BEE4E
:102C1000DAFF06120BEEEAFF06120BEE27D90612B8
:102C20000BEE31D906120BEE6FD906120BEEB8D9A6
:102C300006120BEEF2D906120BEE4CDA06120BEE70
:102C40006DDA06120BEE76DA06120BEEC7DA061212
:102C50000BEEF0DA06120BEEFADA06120BEE66DB7A
:102C600006120BEEF4DB06120BEE42DC06120BEE44
:102C700078DC06120BEEFFDC06120BEE3FDD0612CF
:102C80000BEE77DD06120BEE89DD06120BEEA8DDEA
:102C900006120BEEB1DD06120BEE70DE06120BEE25
:102CA000169F07120BEE149607120BEE4A960712A8
:102CB0000BEE809607120BEED99707120BEE94A23B
:102CC00007120BEEAAA207120BEEB4A207120BEE2C
:102CD000FEA207120BEEB0A307120BEEDCF10612F8
:102CE0000BEEF5F106120BEE99F206120BEED9F28D
:102CF00006120BEEF2F206120BEE26F306120BEEA4
:102D000073F306120BEEA7F306120BEEE9F30612AD
:102D10000BEEE9F506120BEE56F606120BEE10A0BE
:102D200007120BEE39A007120BEE62A007120BEE92
:102D30007AA007120BEEBCA007120BEE0FB0061222
:102D40000BEE10B206120BEE01B606120BEECBB66E
:102D500006120BEE7EE806120BEE30E906120BEEC1
:102D60009AE906120BEE39EC06120BEE67A4071275
:102D70000BEEB98105120BEE1D8405120BEECF850B
:102D800005120BEEC18605120BEE468705120BEEFF
:102D9000C48705120BEEF18705120BEE158B051299
:102DA0000BEE8F8B05120BEE7E8C05120BEEB88CA2
:102DB00005120BEEF88C05120BEEB28E05120BEE1F
:102DC000058F05120BEE4E8F05120BEEBC8F051210
:102DD0000BEEEE8F05120BEE069005120BEE1B911B
:102DE00005120BEE2B9105120BEE5B9205120BEE0A
:102DF0007D9205120BEEB39205120BEE589405125C
:102E00000BEE979405120BEEB79505120BEEEEFF45
:102E100005120BEEA73F00120BEEE63F00120BEE81
:102E2000D7FF05120BEEE2FF05120BEEDAA4071234
:102E30000BEED8A107120BEEE8A107120BEEFAA1D8
:102E400007120BEE8EA207120BEE129E07120BEE6C
:102E5000979E07120BEEFD9E07120BEEF33F00123A
:102E60000BEE63F606120BEE77F606120BEEF0F69B
:102E700006120BEEC9F706120BEE87FA06120BEEDE
:102E8000F83F00120BEEEB9307120BEE6A95071258
:102E90000BEECB9507120BEE119607120BEE6DC2DF
:102EA00006120BEEAAC206120BEE44C306120BEE7C
:102EB00008C406120BEE3CC506120BEECBC606127A
:102EC0000BEEACC706120BEE88C806120BEE0FC94C
:102ED00006120BEE18CA06120BEE5CCA06120BEEB7
:102EE000729B07120BEEC79B07120BEE359C071265
:102EF0000BEEA59C07120BEE809107120BEEAA9128
:102F000007120BEE7F9207120BEE739307120BEE74
:102F10003DBA06120BEEFABA06120BEE35BB0612DC
:102F20000BEE5DBB06120BEEBFBB06120BEE0BBC2D
:102F300006120BEE64BC06120BEEF5BC06120BEE8D
:102F4000F7BD06120BEEB4BF06120BEE36C006122A
:102F50000BEE9BC006120BEEB2C006120BEEC2C106
:102F600006120BEE00C206120BEEDDE405120BEEAC
:102F700067E805120BEEEFE905120BEE46EA0512C3
:102F80000BEE65EA05120BEEE3EA05120BEE81EC9F
:102F900005120BEE65ED05120BEE4FF105120BEE6F
:102FA0001FF205120BEEAEA407120BEEDCFF04FFBE
:102FB000FFFFFFFFFFFFFFFF74F6120FD09002D15B
:102FC00074FEF0A304F09002D4F09002D3F07A01E2
:102FD0008A0A750B007402780A120F4D74D1250A03
:102FE000F87402350BF9EA88828983700774FEF061
:102FF000A304800474FFF0A3F088828983A3A3A3B1
:10300000F088828983A3A3F00AEAC3940240C17ABC
:10301000AF7B231224037AFD7B23122685790002DD
:103020003BFA74F2120FD0EAFEEBFF8E828F83120E
:10303000362A6052123157123176750D00780C1213
:10304000112C8A828B83A31211437C027D007AA00B
:103050007B811221BD7404120F76E9702E850A82DD
:10306000850B83123176780C12112C8A828B83A304
:103070001211437C027D007AAE7B811221BD740463
:10308000120F76E9700579020231529009FC12366E
:103090002A600CC3E498FAE499FB12316750057971
:1030A000010231527A067B00122CAF8A0C8B0DEA9A
:1030B000450D700579130231527A007B00804090F3
:1030C00009FC123B3B8A0E8B0F7403780E120F4DD6
:1030D000850A82850B83E0250EF8A3E0350F8882F0
:1030E000F583A3A3A3A3ECF0A3EDF09009FCE024E7
:1030F00001F0A3E03400F0EA24010AEB3400FB12F3
:10310000316740BB850C82850D83E4F0A3F0750A1E
:1031100004F50B780A12112CEEFCEFFD1239441263
:103120002C1F7402120F769002D912362A9002D9FF
:103130006017E0FAA3E08003E8FAE9FB8A828B8358
:1031400012362A70F38A828B83E50CF0A3E50DF02A
:1031500079007F060210A2EE2402F50AEF3400F592
:103160000B850A82F583228E828F83E0F8A3E0F933
:10317000C3EA98EB9922123B5C8A828B83E0F50CC0
:1031800022C082C083E99009FBF0D083D082020B79
:10319000EB74F7120FD0E9FE74145E60047C0180BA
:1031A00007EEA2E650097C0079101226AF800AA231
:1031B000E040047902800279007F010210A274F7D6
:1031C000120FD0890AECFEEDFFE9A2E550097C015F
:1031D00079101226AF803C7488550A602B7408550C
:1031E0000AFC79101226AFE96027EE2418F582EF69
:1031F0003400F583E0601CEE2417F582EF3400F50F
:1032000083E06401600B800BE9A2E1400479038054
:1032100002790080A474F4120FD074E9120F60EAEE
:10322000FEEBFF890AE4F50CF50D780C12112C75F4
:103230000C02780C12112C750C9C750D81780C12F7
:10324000112C7CFF7DFF7A017B001223857406120E
:103250000F768A828B83E58245836056123CDD853A
:103260001A82851B83E8F0A3E9F07402120FAC7494
:1032700004F014120FAC7401F07404120FACE4F0FB
:103280007405120FAC74FFF07406120FAC74FFF0EB
:10329000E50AF50B780B12113079007401120FACAE
:1032A000AC82AD83EEFAEFFB12239D7401120F7610
:1032B000800279017417120F767F040210A274EA5B
:1032C000120FD08A148B158C128D139002D9E0F551
:1032D0000AA3E0F50B7416120FACE0F516A3E0F5A7
:1032E000177418120FACE0F50CA3E0F50D800D85F6
:1032F0000A82850B83E0F50AA3E0F50BE50A450B8E
:1033000070030233BC7E007F00E50A2404F510E55B
:103310000B3400F5118008EE24010EEF3400FF8518
:103320000A82850B83123CDFC3EE98EF9950C08E62
:103330000E8F0F7403780E120F4D85108285118346
:10334000E0250EF50EA3E0350FF50F850E82F5830F
:10335000123CDDC3E89514E9951540BBC3E512980E
:10336000E5139940B2E50C450D6023780C12112C41
:10337000781612112C850E82850F83E0FC7D00A348
:10338000123B581221BD7404120F76E96089741A39
:10339000120FAC12362A601E851082851183E0FA66
:1033A000A3E0F5838A82A3A3A3A3123B5888828952
:1033B00083EAF0A3EBF0AA0EAB0F80047A007B0047
:1033C0007F0E0210A274EE120FD0ECFEEDFF900201
:1033D000D9E0FCA3E0800A8C828D83123CE1E8FCFA
:1033E000E9FDEC4D70030234868C828D83123CDD46
:1033F000880A890B8882F583A3A3A3A3E0F50EA313
:10340000E0F50FC3EA950EEB950F40CB8C828D83D0
:10341000A3A3E0F510A3E0F511E50E2510F8E50FE4
:103420003511F9C3EA98EB9950AD750C00750D0094
:10343000800CE50C2401F50CE50D3400F50DC3E519
:103440000C9510E50D9511508E850C12850D137499
:10345000037812120F4DE50A2512F8E50B3513F922
:1034600088828983A3A3A3A3E06A7003A3E06B709F
:10347000C1EE4F600B8E828F83E50EF0A3E50FF057
:10348000E8FAE9FB80047A007B007F0A0210A2744C
:10349000F0120FD074FE120F60EAFEEBFF750A0007
:1034A000750B00851A82851B83E4F0A3F0EE2404DB
:1034B000F50EEF3400F50F850E82F583123CE7A37D
:1034C00085820C85830D74FF6A700374FF6B603D09
:1034D000851A82851B8385820A85830B780A1211DF
:1034E0002C8E828F83E0F50A750B00780A12112C5E
:1034F000850C82850D83121143EA24010AEB340006
:10350000FB1223857406120F768A0A8B0B8E828F2C
:1035100083123D9712112C850C82850D8312114365
:103520007C027D007AA07B811221BD7404120F768B
:10353000E970288E828F83E0F510781012112C85A7
:103540000C82850D831211437C027D007AAE7B8153
:103550001221BD7404120F76E9600B850E82850F6F
:1035600083123B5880458E828F83E0F510781012CD
:10357000112C850C82850D831211437C027D007A0B
:10358000AA7B811221BD7404120F76E96036741291
:10359000120FAC123B58E50A450B600F851A828565
:1035A0001B83E06A7003A3E06B60051223A9801FF0
:1035B000850A82850B83A3A3A3A3E024FFFAA3E0DB
:1035C00034FF800A850E82850F83E0FAA3E0FB7446
:1035D00014120FAC123CE188828983E58245836036
:1035E00005EAF0A3EBF0AA0AAB0B7402023CEFC0B1
:1035F00082C0839002D912362A602888828983A3E8
:10360000A3A3A3E0FCA3E0F5838C82A3A3A3A3E080
:103610006A7003A3E06B8882898370DAA3A3123BEC
:103620005880047A007B0002318AE0F8A3E0F9E8D0
:10363000492274F2120FD074FE120F60EAFEEBFF03
:103640008C0A8D0B890C851A82851B83AC82AD8315
:103650001223EBE9F50D706FE50C60107C01791019
:10366000EEFAEFFB1226AFE9F50D705BAC0AAD0B7D
:10367000EEFAEFFB12212DE9F50D704B851A8285CC
:103680001B831236D17410120FACE0F50A74FF657B
:103690000A6034EE2402F50EEF3400F50F780E12B6
:1036A000112C750E1E750F00780E12112CEEFCEF0A
:1036B000FD7AF77B231224277404120F768E828FF3
:1036C00083A3A3A3E50AF0A90D7402120F760231B9
:1036D00052E0FEA3E0FF2274F5120FD074FE120F29
:1036E00060EAFEEBFF8C0A8D0B890C851A82851B24
:1036F00083AC82AD831223EB741769601DE50C6007
:103700000E7C017910EEFAEFFB1226AFE9700BACDC
:103710000AAD0BEEFAEFFB1221277402120F767F2F
:10372000030210A274F6120FD0EAFEEBFF122397E9
:10373000EA4B600FEE24FFF8EF34FFF9EA28FAEBCA
:10374000398003EEFAEFFB023BFA74F0120FD074EB
:10375000E3120F608A0A8B0B123B2AE0F511741EEC
:10376000651170541223F18A0C8B0DEA450D70031C
:1037700002393DEA2403F50EEB3400F50FE4F510B1
:10378000F511781012112C8E828F83E0FD7C00AA37
:103790000AAB0B850E82850F83E0F9122421740297
:1037A000120F76E9F51012394412242D850E828508
:1037B0000F8374FFF002393D9009FBE0F4606BE584
:1037C00011C394195064E511C313F50C750D007401
:1037D00002780C120F4D7400250CF87480350DF929
:1037E000E824FCFAE934FFFB8A0E8B0F8A82F5830A
:1037F000123B58EA4B6033E824FEF582E934FFF5CA
:103800008312362A60248C828D83A385820C858363
:103810000D8C828D83E0F9700B850C82850D83E021
:103820006401700B741265116005790602393F74EA
:1038300004120FAC858210858311781012112C8C24
:10384000828D83A3A3A31211438C828D83A3A3A390
:10385000A3A3123B3B850C82850D83E0FA850E8283
:10386000850F8312394F120FCE7404120F76E9F5CB
:1038700010600302393D7404120FACAC82AD83AA10
:103880000AAB0B8E828F83E0C313F50E750F0074A5
:1038900002780E120F4D74FE250EF582747F350FDF
:1038A000F58312394F120FCEE9F51070368E828FE4
:1038B00083E0FD74046D700302393D7404120FAC93
:1038C00085820C85830D780C12112C7C00AA0AAB22
:1038D0000B9009FBE0F91224217402120F76E9F52E
:1038E00010805A850C82850D83E070518E828F8303
:1038F000E0851A82851B83F07403120FACE9F08E09
:10390000828F83E0F8740468600D74066860087440
:10391000086860037410687404120FAC123CE17400
:1039200001120FACE8F0A3E9F0851A82851B83AC85
:1039300082AD83AA0AAB0B1220DF751000A91074A8
:103940001D023CEFE50C2402FAE50D3400FB22E0F9
:10395000F8A3E0F5838882227900020BEB74F01261
:103960000FD074EA120F608A0E8B0F8C828D831237
:103970003B58750C00123B2AC3E09AA3E09B40041D
:10398000EA4B70057901023B25851A82851B83E489
:10399000F0E4F50AF50B780A12112C780A12112CB2
:1039A000780A12112C8E828F83123B3B122385746E
:1039B00006120F768A0A8B0BA80AA90BE849700336
:1039C000023A8488828983A3AA82AB83E82404F51F
:1039D0000AE93400F50B851A82851B83E060030237
:1039E0003A9588828983E06402700B7401120FACEF
:1039F0007401F0023AA27401120FAC7402F0123B8F
:103A00004175F012A4F885F00DA90DE58228F58224
:103A1000E58339F583A3A3ECF0A3EDF075101075E1
:103A20001100781012112C123B377402120FACE007
:103A300075F012A4F8A9F0E58228F8E58339F9E8D1
:103A40002404FAE93400FB122C1F7402120F76854D
:103A50001A82851B83E004F0700F850A82850B8330
:103A6000E0F47003A3E0F47003750C01850A82850D
:103A70000B83E02401FAA3E03400FBE50CA2E04054
:103A800003023991851A82851B83E06003023B188B
:103A9000790A023B257401120FACE0640160030255
:103AA00039FE88828983E0640270D9123B41F510A7
:103AB00075110074027810120F4DE5822510F58201
:103AC000E5833511F583A3A3ECF0A3EDF0751002A7
:103AD000751100781012112C123B377402120FACC2
:103AE000E0F51074027810120F4DE5822510F8E50C
:103AF000833511F9E82404FAE93400FB122C1F7411
:103B000002120F76851A82851B83E004F0C39405A8
:103B10004003023A69023A5AAC82AD83AA0EAB0F57
:103B20001220EB79007416023CEFEC2402FEED3417
:103B300000FF8E828F83228A828B83E0FCA3E0FDCC
:103B400022850A82850B83E0FCA3E0FD851A82852D
:103B50001B83E0228E828F83123B5C22E0FAA3E07B
:103B6000FB2274F6120FD0123C0C4004EA4B700496
:103B700079018039E4F50AF50B780A12112C8C8250
:103B80008D83A3A3A3A3E0F50A780A12112C123B9C
:103B9000FF12112CEEFCEFFD1223857406120F7636
:103BA0008B0BEA450B7004790A80027900804B7414
:103BB000F6120FD0123C0C4004EA4B7004790180DD
:103BC00039E4F50AF50B780A12112C8C828D83A347
:103BD000A3A3A3E0F50A780A12112C123BFF1211DD
:103BE0002CEEFCEFFD1223857406120F768B0BEA88
:103BF000450B7004790A800279007F020210A2EC62
:103C00002405F50AED3400F50B780A228C828D83A9
:103C1000A3A31236D18C828D83123B5CC3EE9AEF44
:103C20009B2274F6120FD0EAFEEBFF8C828D837C10
:103C3000007D00123B5812238B8A828B83E58245DC
:103C40008370047901800CA3A3A3E0F9EEFAEFFBE3
:103C500012237380A574F0120FD08A0C8B0DECFE2A
:103C6000EDFF750E008002050EEE2416F582EF348E
:103C700000F583E0F8E50EC398505EE50EC333F817
:103C8000E433F9EE28F50AEF39F50B7C007D008569
:103C90000A82F583123B5812238B8A828B83E5823A
:103CA00045837016850A82850B83123CE18E828FD4
:103CB00083E8F0A3E9F079018021A3A3A3E0F9AAA6
:103CC0000CAB0D122373E9609E850A82850B83126B
:103CD0003CE7EAF0A3EBF0800279008015A3A3A3F0
:103CE000A3E0F8A3E0F922123B5C8E828F832212BC
:103CF0000F767F080210A274F0120FD0ECFEEDFFD9
:103D00008E828F83123CE1123157C3E098A3E09971
:103D10004004E84970047901807AEE2405F50EEF3D
:103D20003400F50FEE2404F50CEF3400F50D850C8E
:103D300082F583123D9712112C780E12112C7C0201
:103D40007D007AA07B811221BD7404120F76E97088
:103D5000047910803FE4F510781012112C850C8244
:103D6000850D83E0F50C750D00780C12112C780E82
:103D700012112C850A82850B83123B3B123B541295
:103D800023857406120F768B0BEA450B7004790AB3
:103D900080027900023CF2E0F510751100781022E3
:103DA00074F4120FD08A0A8B0BECFEEDFF7C007DC1
:103DB00000123B5412238B8A828B83E582458370E9
:103DC0000479018010EEFCEFFDA3A3A3E0F9AA0A99
:103DD000AB0B1223790232B902395874F6120FD0A4
:103DE000ECFEEDFF1223F18A0A8B0BA80AA90BE85F
:103DF00049602BEE4F60098E828F83E8F0A3E9F0D3
:103E000088828983A3A3E0F874FE68700479178020
:103E10000F74FF68700479008006791680027902B9
:103E2000023BFA74F6120FD0750A009002D1E06AD4
:103E30007003A3E06B7016750B007402780A120F02
:103E40004D74D1250AFA7402350BFB8013750A01F3
:103E50009002D5E06A7003A3E06B60DB7A007B0020
:103E6000023BFA74F4120FD0EA4B604BEA2402F5DD
:103E70000AEB12315DE0F874FF68603B74FE686025
:103E800036EA2403FEEB3400FFE4F50CF50D780C64
:103E900012112C7D1E7C178A828B83123CE7E0F97D
:103EA0001224217402120F76850A82850B8374FE18
:103EB000F08E828F8304F00232B974F0120FD08A30
:103EC0000C8B0D890E74FE650C700474FF650D700B
:103ED00003023FA4E970301223F18B0BEA450B601B
:103EE00003023FA47AFF7BFF1223F18A0A8B0BA8FF
:103EF0000AA90BE8497003023FA488828983E50C74
:103F0000F0A3E50D023FA37401650E701D1223F1AD
:103F10008A0A8B0BA80AA90BE8497003023FA48800
:103F200082898374FFF0A3F080217402650E70749F
:103F300079011226A3E9706CAA0CAB0D1223F18A49
:103F40000A8B0BA80AA90BE8496059E82402FEE98C
:103F50003400FF8E828F83E0FA74FF6A6046E824A3
:103F600003F50AE93400F50B74FE6A6022E4F510EB
:103F7000F511781012112C7D1E7C14AA0CAB0D8546
:103F80000A82850B83E0F91224217402120F76EE67
:103F9000FAEFFB12242D850A82850B8374FFF08EC5
:103FA000828F83F0023CF2C082C083900837747025
:103FB000F0A374B1F0A3E0541FF090083B741DF01F
:103FC000A37442F0A37470F0A374B2F0900841E0BF
:103FD000541FF0900843741EF0A37412F08000D0B8
:103FE00083D082020BEBC082C083122E11023FDF0E
:103FF000020BEB020BEBFFFF851C87C2AF020BEB42
:020000040002F8
:10300000C082C083E99009FEF002B28F74F7120FFC
:10301000D0E99002E0F07C187D037AFF7BFF122458
:10302000C39002E174FFF0A3F0A3E4F0A3F07905EC
:1030300012244B9002E0E0F912236D7ADB7B24121C
:1030400026857F010210A274F4120FD08A0A8B0B1E
:10305000EB548060309002E0E0F9122C5B8A0C8B1C
:103060000DAE0CAF0DEE4F60138E828F83E064B017
:103070007003122463EEFAEFFB122C49AA0AE50B47
:103080006480FB80047A007B0002B25E74F2120F4F
:10309000D074FC120F60EAFEEBFFEE4F6038740252
:1030A000120FACEEF0A3EF12B4C3ECF0A3ED12B428
:1030B000C3AA82AB83122367E9F50A7073741212F4
:1030C0000FAC12C077E50C450D60658E828F8312C0
:1030D000B13AEE4F7005750A0280557A067B0012F0
:1030E0002CAF8A0E8B0FA80EA90FE8497005750A40
:1030F00013803D88828983E412B144A3A3EEF0A338
:10310000EF12C510E50CF0A3E50DF09002E612B148
:10311000CC9002E66017E0FCA3E08003EAFCEBFD44
:103120008C828D8312B1CC70F38C828D8312BF9C04
:10313000A90A7404120F7602C712A3A3A3A3E0FE88
:10314000A3E0FF22F0A3F0888289832274F2120F99
:10315000D0890CE975F017A4FEAFF09002E5E4F019
:103160009002E312B1CC600A122CB59002E3E4F0B5
:10317000A3F0EEFAEFFB122CAF8A0A8B0BEA450B99
:10318000602FEEFCEFFD7900122C379002E3E50A88
:10319000F0A3E50BF07B00800812B1B6E4F0A3F0D9
:1031A0000BEBC3950C40F2E50C9002E5F079008042
:1031B00002791302C712EB75F017A4F8A9F0900278
:1031C000E3E028FAA3E0398A82F5832212BD32EACD
:1031D0004B2274F4120FD0750A00750B00740C1298
:1031E0000FAC12C4E4FEE9FF800CE50A2401F50AE5
:1031F000E50B3400F50BC3E50A9CE50B9D503285C9
:103200000A0C850B0D7403780C120F4DEA250CF88F
:10321000EB350DF988828983A3A3A3A3A3A312C0CE
:1032200077EE650C7003EF650D70BFE8FAE9FB807F
:10323000047A007B00802774F4120FD07900EAA290
:10324000E0501B750A28750B81780A12112C7C043A
:103250007D007A007B0A1224457402120F767F04E7
:103260000210A2C082C0839002E612B296601C884F
:10327000828983A3A3E06A7003A3E06B88828983B9
:1032800070E8A3A3A3A312BD2E80047A007B00D014
:1032900083D082020BEB12C7E5E8492274EE120FCD
:1032A000D074FC120F60EAFEEBFF851A82851B8347
:1032B000E4F0A3F0EE240212BF80EE240512B4B1B4
:1032C000EE2404F510EF12B896E024FE603924FCD9
:1032D000604624FE605224FE605E24FE700302B34A
:1032E000B624FE700302B42E24FE700302B43D2403
:1032F000FE700302B44C24FC700302B45B24FE7025
:103300000302B46A02B4A79002FF7417F0A3E41298
:10331000B4CB1220E502B4A7851A82851B83AC8248
:10332000AD8312246902B477851A82851B83AC822F
:10333000AD8312246F02B477850E0A850F0B7402D9
:10334000120FACAC82AD83850A82850B8312BD2E31
:1033500012238B8A0E8B0FAC0EAD0FEC4D6042E446
:10336000F50EF50F780E12112C750EFF750F027801
:103370000E12112C750E00750F03780E12112C749D
:1033800008120FAC121143791612BD281224AB7427
:1033900008120F76E9F50E700B12BD241220FD8085
:1033A0000F750E01850A82850B8312B4B912BF9C7A
:1033B000850E0A02B47A7402120FACAC82AD83851A
:1033C0000E82850F8312BD2E12238B8A128B13ACB3
:1033D00012AD13EC4D6043850E82850F83A3A312BB
:1033E00011437512FF751302781212112C75120019
:1033F000751303781212112C7408120FAC121143BA
:10340000791612BD281224AB7408120F76E9F50B59
:10341000700B12BD24122103800F750B01850E82E3
:10342000850F8312B4B912BF9C850B0A804C851A94
:1034300082851B83AC82AD83122475803A851A8203
:10344000851B83AC82AD8312247B802B851A8285F9
:103450001B83AC82AD83122481801C851A82851B5C
:1034600083AC82AD83122487800D851A82851B83ED
:10347000AC82AD8312248DE9F50AE50A60298E82BB
:103480008F83A3E06414601F851082851183E09010
:1034900002FF12B4C312C7E190030012BF9CE50AF9
:1034A000A312B4CB1220DFEEFAEFFB12240902BE06
:1034B00088F50EEF3400F50F2212C7E5851A8285D4
:1034C0001B8322F0851A82851B8322F07CFF7D02FC
:1034D000850C82850D8312BD322274EE120FD074DA
:1034E000FC120F608A0C8B0D8C108D11EA2405F5EF
:1034F0000AEB3400F50B7C157D0079007AFF7B0226
:10350000122C37E50A2402F50EE50B12B4B4851A25
:1035100082851B83858212858313781212112C8574
:103520000A82850B83A3A3A3A312B9DE12112CE593
:103530000A2405F512E50B3400F513781212112C4C
:10354000850E82850F8312BD381223857406120FF3
:10355000768A128B13AE12AF13E50C2402F50CE53C
:103560000D12BF83EE4F700302B6A08017740212D3
:103570000FAC12BD2E88828983EAF0A3EBF0900293
:10358000FFE004F09002FFE0C39405400302B6A000
:10359000E4F512F513781212112C7512E875130266
:1035A000781212112C7512E9751302781212112C6F
:1035B0007406120FAC1211437910EEFCEFFD12BD30
:1035C000281224AB7408120F76E9705E850A828592
:1035D0000B83A3A3A3A3A3A3A3E0F89002E8E0684E
:1035E000704812B9DE12112C7CE97D02E50A24082C
:1035F000FAE50B3400FB122C317402120F76E960ED
:10360000298E828F83A3A3A3A312BD2E9002FFE075
:10361000F51274027812120F4D74002512F582749F
:10362000033513F583EAF0A3EBF07402120FAC85B7
:103630008212858313781212112C7402120FAC12AD
:103640001143850E82850F8312C7F61223917404ED
:10365000120F768A128B13AE12AF139002FFE0F5B1
:103660001275130074027812120F4D74FF2512F8B0
:1036700074023513F988828983A312B1CC700302D6
:10368000B564E82403F8E93400F9EE4F600302B5AD
:103690006D8882898374FFF0A3F09002FFE004F04C
:1036A0009002FFE0600A12BD241220F17900800B25
:1036B000850A82850B8312BF93790A02BE8874EA59
:1036C000120FD074FE120F608C148D15EA2405F5CC
:1036D0000EEB12C80012B13E750A00750B00EA2409
:1036E00002F512EB3400F513851A82851B8385825F
:1036F0000C85830D780C12112C850E82850F83A307
:10370000A3A3A312B8A012112CE50E2405F50CE515
:103710000F12BF83780C12112C850E82850F831235
:10372000C7F41223857406120F768A0C8B0DEA45B6
:103730000D700302B851EA2404F510EB12B896128A
:10374000B13E8A828B83A3A3A3E0F98512828513FD
:103750008312BD2E122373E9F50B600302B851E406
:10376000F516F517781612112C7516E875170278EC
:103770001612112C7516E9751702781612112C7491
:1037800006120FAC1211437913AC0CAD0D851282E9
:1037900085138312BD2E1224AB7408120F76E9F53F
:1037A0000B600302B8519002E8E0F8E50A7009E006
:1037B0002402900300F08017900300E0FCE824024C
:1037C000FAE43400FBEA6C7001EB600302B8558543
:1037D0000A82AA8212B9D5941412B9CD50738510F9
:1037E00082851183E0C0E074012A12B88DD0E0F028
:1037F000050A851082851183A3E0C0E0850A0C7458
:1038000001250C12B88DD0E0F0050A9002E812B83C
:10381000A012112C7CE97D02850A0C7401250CFA9A
:1038200074033400FB122C1F7402120F769002E80E
:10383000E0250AF50A74FF6E700374FF6F6012EEE4
:1038400024010EEF3400FFE50AC39414500302B6BE
:10385000E8E50A601312BC1985128285138312BD34
:103860002E1220F779008014E50B7003750B0A8582
:103870001482851583EEF0A3EFF0A90B7402120FEA
:10388000767F0E0210A2850A0E7401250EF5827451
:10389000033400F583223400F511851082F583226C
:1038A00012C5232274EE120FD074FE120F608C101A
:1038B0008D11EA2405F50EEB12B4B4750D009002DB
:1038C000FFE4F0F50CEA2402F50AEB3400F50B8076
:1038D000499002FFE0FA9002E8E0F812B9D5941797
:1038E00012B9CD400D9002FFE0F87416C398900213
:1038F000E8F012B9DE12112C7CE97D0274002AFA7C
:1039000074033400FB122C1F7402120F769002E82D
:10391000E0F89002FFE028F0050CE50E2416F58291
:10392000E50F12B891E0F8E50CC398400302B9B670
:103930009002FFE0C39416507DE50CC333F8E433E6
:10394000F9E50E28FEE50F39FF851A82851B83AC49
:1039500082AD838E828F8312BD2E12238B8A128BAF
:1039600013AC12AD13EC4D7005750D018043E4F5F9
:1039700012F513781212112C7512E87513027812D1
:1039800012112C7512E9751302781212112C74069B
:10399000120FAC1211437916850A82850B8312BD72
:1039A0002E1224AB7408120F76E9F50D700302B8DD
:1039B000D112BF8F80107CFF7D02850A82850B8328
:1039C00012BD2E122109A90D740202BE8AE99400CB
:1039D000C365D03322EA28F8E43400F9E822E0F5A0
:1039E0001275130078122274EA120FD074FC120FB1
:1039F000608A0E8B0F8C148D15EA2405F50CEB12E2
:103A0000BF83750A00750B00E50C2402F512E50D65
:103A10003400F5137402120FAC858210858311787F
:103A20001012112C850C82850D83A3A3A3A312C4AD
:103A3000CF12112CE50C2405F510E50D3400F5111D
:103A4000781012112C85128285138312BF8912BD42
:103A5000281223857406120F768A108B11AE10AFD0
:103A600011E50E2402F510E50F3400F511804088B1
:103A700082898374FFF0050A12B88674FFF0050A84
:103A80009002E8E0F50E750F00780E12112C7CE91B
:103A90007D02850A0E7401250EFA74033400FB12B0
:103AA0002C1F7402120F769002E8E0250AF50AEE48
:103AB0004F60718E828F83A3A3A3E0F98510828566
:103AC000118312BD2E122373E9F50BEE240412B4F8
:103AD000B1E97044E4F516F517781612112C751635
:103AE000E8751702781612112C7516E97517027809
:103AF0001612112C7408120FAC1211437911EEFC3E
:103B0000EFFD85108285118312BD2E1224AB74083F
:103B1000120F76E9F50B6027850E82850F8312BCA4
:103B20000F12BF9CE50A700302BBF512BC19851089
:103B30008285118312BD2E12210F790002BC0A85E5
:103B40000A82AA82EA9002E87009E0240490030045
:103B5000F08022E0F8900300E0F516E82404FCE48D
:103B60003400FDEC65167001ED70C012B9D59412E9
:103B700012B9CD50B6850E82850F83E0C0E0740186
:103B80002A12B88DD0E0F0050A850E82850F83A336
:103B9000E0C0E012B886D0E012BC2B85820E85838F
:103BA0000F780E12112C7404120FAC1211438512EF
:103BB0008285138312C7F61223917404120F768A3A
:103BC0000E8B0FAE0EAF0F850A0E7401250EF87422
:103BD000033400F9EE4F700302BA6F851A82851B19
:103BE00083E08882898312BC2BA3E0C0E012B886F0
:103BF000D0E002BA7DE50B7003750B0A850C828557
:103C00000D8312BC0F12BF9CA90B740402B87E1264
:103C1000C7E585148285158322900300E0F5F0E561
:103C20000A849002FFF07CFF7D0222F0050A851ACB
:103C300082851B832274EC120FD074FE120F608AEF
:103C40000A8B0B8C108D11EA2405FEEB3400FF85E6
:103C50001A82851B83AC82AD838E828F8312BD2E28
:103C600012238B8A0C8B0DEE241812B4B1EA450D89
:103C7000700302BCFF12BE715032851A82851B830D
:103C800012BD2E12249F8A128B13EA4513606B79A2
:103C900012AC0CAD0D850A82850B8312BD2E8512E8
:103CA00082851383120FCEE9F50C7058E4F50CF5FC
:103CB0000D780C12112C8E828F83A3A3E0F50C7863
:103CC0000C12112CEE240312BF80780C12112C8ED2
:103CD000828F8312BD381224B17406120F76E9F573
:103CE0000C7021850E82850F83E0701F850A828506
:103CF0000B8312BD2E1221158011750C0E800975D3
:103D00000C018004E50C600312BF8F850E82850FC5
:103D100083E0600479008002A90C7402120F767FA0
:103D20000C0210A27CFF7D02850C82850D8312BDE2
:103D30003222E0FAA3E0FB22E0FCA3E0FD850A8248
:103D4000850B8312BD322274EE120FD074FE120F57
:103D5000608A0A8B0B8C0E8D0FEA2405FEEB340073
:103D6000FF751000851A82851B83AC82AD838E821D
:103D70008F8312BD2E12238B8A0C8B0DEA450D709A
:103D80000302BE5D12BE715035851A82851B8312F7
:103D9000BD2E12249F8A108B11EA4511605E7912A4
:103DA000AC0CAD0D850A82850B8312BD2E85108269
:103DB000851183120FCEE9F510600302BE60850AFB
:103DC00082850B8312C077AA0CFB1224938A128B74
:103DD00013A812A913E849701E7AFF7BFF122493DF
:103DE0008A128B13A812A913E849606C8882898310
:103DF000E50CF0A3E50DF0750C00800775100E8042
:103E00005F050C9002E5E0FAE50CC39A504AE50C18
:103E100075F017A4FAABF088828983A3A3E02AFA8D
:103E2000A3E03BFB8A828B8312BF89EC4D70D27575
:103E30000C17750D00780C12112CEEFCEFFD122CF6
:103E40001F7402120F76EEFCEFFD850A82850B834C
:103E500012BD2E12211B80147510098003751001EC
:103E600012C7DD850E82850F8312BF9CA91002B98F
:103E7000C8E50A2402F50AE50B3400F50B8A828BAB
:103E800083A3A3A3E0A2E5227404120F767F0A02A3
:103E900010A274EC120FD08C128D13EA2405F50ECB
:103EA000EB12B4B4751100EA2402F50CEB12BF83D7
:103EB000850C82F58312BD2E1224938A0A8B0BEA9D
:103EC000450B700302BF757510008071850E8285E9
:103ED0000F83E06401704F8E828F83A3A31211437E
:103EE0008E828F83A3A3A3A3E0F514751500781425
:103EF00012112CEE2405F514EF3400F51578141288
:103F0000112C12BD281224B17406120F76E9F51196
:103F10006014850E82850F83E4F012C7DD8512825E
:103F200085138312BF9C7C177D007900EEFAEFFBAE
:103F3000122C378E828F83E4F0A3F005109002E5F7
:103F4000E0F8E510C398501EE51075F017A4F8A925
:103F5000F0850A82850B83A3A312C80A12BF89ECDD
:103F60004D600302BECC850A82850B8374FFF0A3EB
:103F7000F0E511700612BD28122121A91102BD1F02
:103F8000F50CEF3400F50D22A3E0FCA3E0FD228E3A
:103F9000828F8312C7E5851082851183E8F0A3E93B
:103FA000F022C082C0839002E1E06A7003A3E06B5C
:103FB00070067AE17B0280047A007B0002B28FC037
:103FC00082C08378008C828D83E06A7003A3E06BEB
:103FD0007010E875F003A4F8A9F0EC28FAED39FBAD
:103FE0008015088C828D83A3A3A3E06A7003A3E0ED
:103FF0006B60DF7A007B0002B28F74F6120FD01272
:10400000245D8A828B83E582458370067A007B007B
:104010008007A3A3A3A312BD2E02C68E74F2120FB3
:10402000D0E9FE740E120FAC12C0777410120FACF0
:1040300012C4EF8C828D83E064027036A312C7EB4A
:10404000F50EA3E0F9A80E74026870037429697074
:1040500021750E02750F00780E12112C780A1211BC
:104060002C780C12112CEEF91224D57406120F764E
:104070008002790102C712E0F50CA3E0F50D22746D
:10408000E8120FD074FB120F60E9851A82851B833A
:10409000F08A188B19ECFEEDFF751200741D120FDB
:1040A000AC12C7E1741D120FAC12BF9C8E828F83BD
:1040B000A3A3A3E0A2E4502D741D120FAC12BD2ED9
:1040C00012249F8A828B83E5824583700302C4C0D9
:1040D000790AEEFCEFFDAA18AB19120FCEE9F51222
:1040E000600302C4C3741F120FAC12C4EF74211218
:1040F0000FAC12C0777423120FACE0F510A3E0F5FB
:10410000118E828F83E06402600302C46EA312C723
:10411000E1850A82850B83A3858214858315EE24AD
:104120000612B4B188828983E0FAA3E0F9EA240098
:10413000F516E439F51778161211B60100002801BA
:104140002863C10700022828C2032895C100295FFF
:10415000C301298AC302292BC303295FC304290988
:10416000C46EC4E5104511600302C469850E8285E2
:104170000F8312C4E4FAE9FB8A828B83E0850C8208
:10418000850D8312C51A12112C8A828B83A3E0FC41
:10419000A3E002C3F3E5104511600302C469850C76
:1041A00082850D837401F012C4F7850A82850B8322
:1041B000F07C007D008E828F83A3A3A3A3E0240163
:1041C000FAA3E03400FB12238BEA4B60418A828B16
:1041D00083E02402F8850C82850D83E028F0EA2430
:1041E00004F8EB3400F988828983E0851482851510
:1041F0008312C52C12C51A12112C8A828B8312BF0E
:1042000088E50A2403FAE50B3400FB02C3F8850CA9
:1042100082850D83E02404F07C047D007900AA14DB
:10422000AB15122C3702C4C3E5104511600302C45C
:104230006912C4F7FEA3E0FF850C82850D83740428
:10424000F0EE850A82850B83F0EF85148285158355
:10425000F07403120FACAC82AD83EEFAEFFB1223C5
:104260008B8A0E8B0FEA450F700302C30C8A828B78
:1042700083A3A312B13A7401120FAC858210858317
:1042800011781012112C7405120FAC1211437CFF1F
:104290007DFF1223917404120F768B11EA45117081
:1042A00033850E82850F8312C4CF12112C850E82A6
:1042B000850F83A31211437C027D007AAE7B8112AD
:1042C00021BD7404120F76E9700A7401120FAC74E8
:1042D000FFF0A3F08E828F83E064027039750E02C6
:1042E000750F00780E12112C8E828F8312BF88E515
:1042F0000A2404FAE50B3400FB122C1F7402120F7F
:1043000076850C82850D83E0240280097401120FEA
:10431000ACEEF0A3EFF07401120FAC12C4E0F07435
:1043200001120FACA312C4D802C463E5104511609A
:104330000302C469850E82850F8312BF89AA18AB58
:10434000191224C9850C82850D837402F0EA850A4E
:1043500082850B83F0851482851583EB02C466E5A4
:10436000104511600302C46912C4F7F8A3E0F9858F
:104370000C82850D837402F0E8850A82850B83F038
:10438000E985148285158302C466850E82850F83B4
:1043900012BD2E122C19EAFC8C82A882C39510E45F
:1043A0009511405FE865107002E51170047C008093
:1043B00022851A82851B83E0FAE5102AFAE511347A
:1043C00000FBC3EA98EB94005003E08005E510CCB5
:1043D000C39CFCEC850C82850D83F08C0C750D0064
:1043E000780C12112C850E82850F83E02510FCA31A
:1043F000E03511FDAA0AAB0B122C1F7402120F76C6
:1044000002C4C375120702C4C3E5104511705A8572
:104410000E82850F8312C7E1850C82850D83740798
:1044200012B14612C4D812B146A3E0851482851594
:1044300083F0E82402FAE93400FB8A828B8312C4F9
:10444000D812C50712C4E0A312C51012C4E9F0E8DF
:104450002405F8E93400F98882898312C4E9A3129B
:10446000C52CA3A3A3A3F0805A75120B8055741D0D
:10447000120FAC12BD2E12245D8A828B83E5824519
:1044800083603D12C7E1880E890FE8450F603178DF
:104490001012112C780C12112C780A12112C74069F
:1044A000120FACE0F9EEFCEFFDAA18AB19850E82F5
:1044B000850F83120FCE7406120F76E9F512800372
:1044C00075120EA9127405120F767F100210A2E069
:1044D000F510751100781022E0850A82850B832281
:1044E00012C5362212C7E5E82212C536A3A322E080
:1044F000F50AA3E0F50B22850E82850F83E0F8A371
:10450000E0F5838882E022A3A3F08A828B83A32232
:10451000F088828983A3A3A3A322F08A828B8312CB
:10452000C52322E0F50C750D00780C22F0888289F5
:1045300083A312C53622E0850A82850B83A3A322BA
:1045400074EE120FD074FE120F608A0C8B0DECFA11
:10455000EDFB7414120FACE0F512A3E0F513741622
:10456000120FACE0FE7418120FACE0F510A3E0F5EA
:1045700011851A82851B83AC82AD8312238B8A0E30
:104580008B0FEA450F6049851A82851B8312BD2E69
:1045900012245D8A828B83E5824583602FA3A31258
:1045A000C4EFE50A450B6024781012112C78121222
:1045B000112CEEF9AC0EAD0FAA0CAB0D850A82855D
:1045C0000B83120FCE7404120F768006790E8002D0
:1045D000790102B9C874F6120FD074FE120F60741C
:1045E0000C120FAC12C4E4851A82851B83F074018F
:1045F000120FACE9F0E4F50AF50B780A12112C75EC
:104600000A02780A12112C7404120FAC85820A85F2
:10461000830B780A12112C1224B17406120F7674CF
:1046200002120F76806874F7120FD0EAFEEBFF8952
:104630000A7C187D031224C9EA5402600BA90AEE11
:10464000FAEFFB12237F8002790102B04274F61266
:104650000FD074FF6A700374FF6B70168C828D83A9
:1046600012C693E4F08C828D83A3A3A312C693A3F6
:1046700080181224998A0A8B0BA80AA90BE84960B2
:104680000D8882898374FF12B144A3A3E4F07F02F2
:104690000210A274FFF0A3F08C828D83A3A3227476
:1046A000F6120FD01224998A828B83E582458360AB
:1046B00006A3A3E0FA80027A007B0080D174F21294
:1046C0000FD08A0A8B0BECFEEDFF740E120FACE0DC
:1046D000F50C1224998A0E8B0FA80EA90FE84970C9
:1046E00026EEFCEFFD7AFF7BFF1224998A0E8B0FDA
:1046F000A80EA90FE8497004791180168882898371
:10470000E50AF0A3E50BF088828983A3A3E50CF00A
:1047100079007F060210A274EE120FD0EAFEEBFFC2
:104720008C0A8D0B890E7414120FAC12C7E174162B
:10473000120FAC12BD2E750F00E849600302C7D5F9
:104740007402650E600302C7D07412120FAC12C758
:10475000EBFCA3E0F9EC2400F510E439F511EAF4E0
:10476000F8EBF4F9EC58F8E51159F9E849705CE513
:104770000A2406F8ED3400F9880C890D8882F58347
:1047800012C7F61224C98A128B13E5106512700441
:10479000E51165136042781012112C850C82850D8D
:1047A0008312C7F61224CF7402120F76E9F50F7048
:1047B00027781012112C850A82850B83A3A312C7B8
:1047C000F41224E17402120F76800D750F808008B8
:1047D000750F0D8003750F0BA90F02BE8D8E828F92
:1047E0008312C7E522E0F8A3E0F92212C7E5888228
:1047F0008983E022A3A3E0FCA3E0FDEEFAEFFB2215
:104800003400F50F850E82F58322E028FEA3E039FF
:10481000FF8E828F832274F2120FD0EAFEEBFF89A3
:104820000D7401650D600E7402650D706A790112D8
:1048300026A3E97062EEFAEFFB1224938A0A8B0B2F
:10484000EA450B6047750C00800B7C177D007900F2
:10485000122C37050C9002E5E0F8E50CC3985021C6
:10486000E50C75F017A4F8A9F0850A82850B83A3DF
:10487000A3E028FAA3E039FB8A828B8312B29670F8
:10488000C9850A82850B8374FFF0A3F07C187D0331
:10489000EEFAEFFB1224C302C71274F2120FD08A91
:1048A0000A8B0BECFEEDFF740E120FAC12C077906A
:1048B00009FEE0F4603D7A097B00122C43EA4B606C
:1048C000328A828B8374B1F0A3E412C509A312C5A6
:1048D00007A3E50AF0A3E50B12C8F6EEF0A3EF126A
:1048E000C8F6A3A3E50CF0A3E50DF09009FEE0F9EE
:1048F000122C4F02C712F08A828B83A3A3A3A3A317
:1049000022C082C0839061907404F0A37448F0A325
:104910007402F09061807440F09061BC7403F09078
:1049200061877419F0906265741BF0906249E0C36E
:10493000941390619C400A7409F090606674018041
:1049400007740DF0906066E4F090619A7433F0A300
:104950007455F09061A0743AF090053EE0640170E7
:1049600009C2919003A5746780059003A57461F056
:10497000902FB2E493906186F0902FB4E493F460AA
:1049800027E493540FF8906185E0686012E5C654FF
:10499000804449F5C6E59E547F644970F8E8F053B9
:1049A000C680E59E547F70FA7905122A0302CB5C1B
:1049B000C082C083E9540FF9906185E0696012E517
:1049C000C654804449F5C6E59E547F644970F8E9B1
:1049D000F053C680E59E547F70FA02CB5CC082C063
:1049E00083E5A8F853A87E906181E4F0A3F0A3F0DA
:1049F000C2BA539AFEC289759B00C2C275E900759E
:104A0000910075BF0075A91175B905906181F0A37A
:104A100074C0F0A3E4F0D2BA439A0174805842A85B
:104A200002CB5CC082C08374F8120F609003A3E0D5
:104A3000F8A3E0F9E849700302CB519003A3E054D6
:104A40004060237908851A82851B83AA82AB831272
:104A50002865851A82851B83AA82AB831225539011
:104A600003A3E054BFF0E054806010790C7A647BBB
:104A7000051228659003A3E0547FF0E0A2E05031D6
:104A800090619A7433F0A37455F09061A0743AF079
:104A900090053EE064017009C2919003A57467809F
:104AA000059003A57461F01225599003A3E054FE0C
:104AB000F0E05402603190619A743FF0A3745AF0B0
:104AC0009061A0747FF090053EE064017009D2917E
